:020000040800F2
:1000000000000220095A01088144010889440108BE
:100010009144010899440108A1440108000000002E
:10002000000000000000000000000000A9440108DA
:10003000B744010800000000C5440108D34401088A
:100040005D5A01085D5A01085D5A01085D5A0108B0
:100050005D5A01085D5A01085D5A01085D5A0108A0
:100060005D5A01085D5A01085D5A0108E144010822
:10007000F5440108094501081D45010831450108FD
:100080005D5A01085D5A01085D5A0108454501089D
:10009000594501085D5A01085D5A01085D5A010879
:1000A0005D5A01085D5A01085D5A01085D5A010850
:1000B0005D5A01085D5A01085D5A01085D5A010840
:1000C0005D5A01085D5A01085D5A01085D5A010830
:1000D0005D5A01086D4501085D5A01085D5A010825
:1000E0005D5A01085D5A0108000000005D5A0108D0
:1000F0005D5A01085D5A01085D5A01085D5A010800
:100100005D5A01085D5A01085D5A01085D5A0108EF
:100110005D5A010881450108954501085D5A0108AD
:100120005D5A01085D5A01085D5A01085D5A0108CF
:100130005D5A01085D5A01085D5A01085D5A0108BF
:1001400000000000000000000000000000000000AF
:100150005D5A01085D5A01085D5A01085D5A01089F
:100160005D5A01085D5A01085D5A01085D5A01088F
:100170005D5A0108A94501085D5A01080000000008
:100180005D5A01085D5A0108BD4501085D5A010824
:100190005D5A01085D5A0108D14501085D5A010800
:1001A0005D5A01085D5A01085D5A0108000000000F
:1001B0005D5A01085D5A01085D5A01085D5A01083F
:1001C0005D5A01085D5A01080000000000000000AF
:1001D00000000000000000005D5A0108000000005F
:1001E000000000000000000000000000000000000F
:1001F00000000000000000005D5A01085D5A01087F
:100200005D5A01085D5A0108000000005D5A0108AE
:100210005D5A01085D5A01085D5A01085D5A0108DE
:100220005D5A0108000000005D5A0108000000004E
:100230005D5A01085D5A0108000000005D5A01087E
:100240005D5A0108E54501085D5A01085D5A01083B
:100250005D5A01085D5A01085D5A01085D5A01089E
:100260005D5A01085D5A01085D5A01085D5A01088E
:100270005D5A01085D5A01085D5A0108000000003E
:100280005D5A01085D5A01085D5A01085D5A01086E
:10029000000000005D5A01085D5A010800000000DE
:1002A000000000005D5A01085D5A01085D5A01080E
:1002B0005D5A01085D5A01085D5A01085D5A01083E
:0C02C000F94501085D5A01085D5A01086B
:1002D00081F0004102E000BF83F0004330B54FEAF7
:1002E00041044FEA430594EA050F08BF90EA020F64
:1002F0001FBF54EA000C55EA020C7FEA645C7FEAF7
:10030000655C00F0E2804FEA5454D4EB5555B8BF19
:100310006D420CDD2C4480EA020281EA030382EA8A
:10032000000083EA010180EA020281EA0303362D1C
:1003300088BF30BD11F0004F4FEA01314FF4801CEF
:100340004CEA113102D0404261EB410113F0004F01
:100350004FEA03334CEA133302D0524263EB4303B8
:1003600094EA050F00F0A780A4F10104D5F1200E56
:100370000DDB02FA0EFC22FA05F2801841F10001B1
:1003800003FA0EF2801843FA05F359410EE0A5F185
:1003900020050EF1200E012A03FA0EFC28BF4CF0B6
:1003A000020C43FA05F3C01851EBE37101F000456C
:1003B00007D54FF0000EDCF1000C7EEB00006EEB79
:1003C0000101B1F5801F1BD3B1F5001F0CD3490803
:1003D0005FEA30004FEA3C0C04F101044FEA44525A
:1003E00012F5800F80F09A80BCF1004F08BF5FEAE1
:1003F000500C50F1000041EB045141EA050130BDC1
:100400005FEA4C0C404141EB0101013C28BFB1F5D2
:10041000801FE9D291F0000F04BF01460020B1FA1D
:1004200081F308BF2033A3F10B03B3F120020CDAF0
:100430000C3208DD02F1140CC2F10C0201FA0CF0CE
:1004400021FA02F10CE002F11402D8BFC2F1200C33
:1004500001FA02F120FA0CFCDCBF41EA0C019040E9
:10046000E41AA2BF01EB0451294330BD6FEA040432
:100470001F3C1CDA0C340EDC04F11404C4F120021D
:1004800020FA04F001FA02F340EA030021FA04F32F
:1004900045EA030130BDC4F10C04C4F1200220FA86
:1004A00002F001FA04F340EA0300294630BD21FAC4
:1004B00004F0294630BD94F0000F83F4801306BF8A
:1004C00081F480110134013D4EE77FEA645C18BF7E
:1004D0007FEA655C29D094EA050F08BF90EA020F15
:1004E00005D054EA000C04BF1946104630BD91EA0D
:1004F000030F1EBF0021002030BD5FEA545C05D110
:100500004000494128BF41F0004130BD14F580044E
:100510003CBF01F5801130BD01F0004545F0FE41C2
:1005200041F470014FF0000030BD7FEA645C1ABFF7
:10053000194610467FEA655C1CBF0B46024650EA2E
:10054000013406BF52EA033591EA030F41F400215A
:1005500030BD00BF90F0000F04BF0021704730B5E0
:100560004FF4806404F132044FF000054FF00001B5
:1005700050E700BF90F0000F04BF0021704730B576
:100580004FF4806404F1320410F0004548BF40424B
:100590004FF000013EE700BF42004FEAE2014FEAA0
:1005A00031014FEA02701FBF12F07F4393F07F4F7B
:1005B00081F06051704732F07F4208BF704793F07E
:1005C0007F4F04BF41F40021704730B54FF4607491
:1005D00001F0004521F000411CE700BF50EA010294
:1005E00008BF704730B54FF000050AE050EA01023D
:1005F00008BF704730B511F0004502D5404261EBAD
:1006000041014FF4806404F132045FEA915C3FF4ED
:10061000D8AE4FF003025FEADC0C18BF03325FEA8A
:10062000DC0C18BF033202EBDC02C2F1200300FA3B
:1006300003FC20FA02F001FA03FE40EA0E0021FA60
:1006400002F11444BDE600BF53B94AB9002908BFFE
:1006500000281CBF4FF0FF314FF0FF3000F00CB806
:10066000ADF1080C6DE904CE16F00EF8DDF804E0EB
:10067000DDE9022304B07047704700BF0348044B14
:10068000834202D0034B03B1184770478401002016
:1006900084010020000000000548064B1B1AD90FFA
:1006A00001EBA301491002D0034B03B11847704777
:1006B00084010020840100200000000010B5064CD9
:1006C000237843B9FFF7DAFF044B13B10448AFF3C3
:1006D00000800123237010BD840100200000000071
:1006E000006A010808B5054B1BB105490548AFF381
:1006F0000080BDE80840FFF7CFBF00BF000000004A
:1007000088010020006A010880B400AF3E4BD3F896
:1007100088303D4A43F47003C2F888303B4B1B6875
:1007200003F00F03062B07D8384B1B6823F00F0389
:10073000364A43F007031360354B1B68344A43F0D5
:1007400001031360324B00221A61314B1A683049A1
:10075000304B13400B602D4B1B6803F00803002B3C
:1007600007D02A4B1B6823F00F03284A43F00703E6
:100770001360274B00229A61254B0022DA61244B3B
:1007800000221A62224B244A9A62214B234ADA62DF
:100790001F4B234A1A631E4B00225A631C4B204AEC
:1007A0009A631B4B0022DA63194B1D4A1A64184BDB
:1007B00000225A64164B1B68154A23F480231360E9
:1007C000134B00221A66124BD3F8D43003F4805333
:1007D000002B13D10E4BD3F8D4300D4A43F4805381
:1007E000C2F8D4300F4B43F2D2021A60084BD3F850
:1007F000D430074A23F48053C2F8D43000BFBD463A
:100800005DF8047B704700BF00ED00E0002000525F
:10081000004402587FEDF6EA000202020000FF01E8
:10082000800201010040005280B400AF094BDB6838
:10083000084A43F00203D36000BF064B5B6803F431
:100840000053002BF9D000BF00BFBD465DF8047B0C
:10085000704700BF0048025880B586B002AF78608C
:100860007B68002B01D1012307E17B681B68854A67
:10087000934203D08621844813F02CFC7B6893F8C4
:100880009534DBB2002B06D17B68002283F89424D8
:10089000786815F0E5F87B68032283F895247B6877
:1008A0001B68184601F0ABFB7B6818687B681A7CF4
:1008B0008DF8002004330ECB01F07CFA0346002BA8
:1008C00005D07B68022283F895240123D5E07B685C
:1008D0001B680021184601F0A3FB0346002B05D03E
:1008E0007B68022283F895240123C6E00023FB7372
:1008F0004AE0FA7B79681346DB0013449B000B4403
:10090000153301221A70FA7B79681346DB00134411
:100910009B000B441433FA7B1A70FA7BFB7B98B272
:1009200079681346DB0013449B000B442E330246C8
:100930001A80FA7B79681346DB0013449B000B4452
:10094000183300221A70FA7B79681346DB001344CF
:100950009B000B441C3300221A60FA7B7968134613
:10096000DB0013449B000B44203300221A60FA7B07
:1009700079681346DB0013449B000B4424330022A8
:100980001A60FB7B0133FB737B681B79FA7B9A420D
:10099000AFD30023FB7344E0FA7B79681346DB0096
:1009A00013449B000B4403F2552300221A70FA7B78
:1009B00079681346DB0013449B000B4403F5157361
:1009C000FA7B1A70FA7B79681346DB0013449B00AC
:1009D0000B4403F5167300221A70FA7B79681346EC
:1009E000DB0013449B000B4403F5177300221A60CD
:1009F000FA7B79681346DB0013449B000B4403F534
:100A0000187300221A60FA7B79681346DB001344DE
:100A10009B000B4403F5197300221A60FB7B013322
:100A2000FB737B681B79FA7B9A42B5D37B681868A5
:100A30007B681A7C8DF8002004330ECB01F03CFB60
:100A40000346002B05D07B68022283F895240123FE
:100A500013E07B6800225A747B68012283F8952496
:100A60007B681B7B012B02D1786801F073F97B68EE
:100A70001B68184602F07FFB002318461037BD465E
:100A800080BD00BF00000440186A010880B584B032
:100A900000AF78607B681B68FB607B6893F89434D8
:100AA000012B01D1022322E07B68012283F89424E8
:100AB000FB68DB6803F04003002B09D07B685B7B9D
:100AC000012B05D1FB689B6B43F48032FB689A6372
:100AD0007B681B68184601F081FA7B681B68184622
:100AE00002F028FB7B68002283F894240023184638
:100AF0001037BD4680BD90B58DB000AF78607B6883
:100B00001B683B623B6AFB617B681B68184602F00E
:100B1000E6FB0346002B40F0B9847B681B6818464F
:100B200002F04AFB0346002B00F0AF84FB6903F59B
:100B300000639B681B0AC3F30D027B68C3F8D424CF
:100B40007B681B68184602F037FB034603F002037C
:100B5000022B07D17B681B685A697B681B6802F00F
:100B600002025A617B681B68184602F025FB0346A7
:100B700003F01003102B61D17B681B689A697B68B6
:100B80001B6822F010029A613B6A1B6ABB61BB6959
:100B900003F00F021346DB0013449B0003F51473AC
:100BA0007A68134404337B61BB6903F4F013B3F533
:100BB000802F24D1BA6947F6F0731340002B35D04B
:100BC0007B69D968BB691B099BB2C3F30A039BB25B
:100BD0001A46386A02F05CF97B69DA68BB691B095E
:100BE000C3F30A031A447B69DA607B695A69BB69FB
:100BF0001B09C3F30A031A447B695A6116E0BB69F7
:100C000003F4F013B3F5402F10D17B6803F29C433B
:100C100008221946386A02F03BF97B695A69BB69B8
:100C20001B09C3F30A031A447B695A617B681B687A
:100C30009A697B681B6842F010029A617B681B68A6
:100C4000184602F0B9FA034603F40023B3F5002F67
:100C500040F0A78000237B627B681B68184602F087
:100C6000BEFAB86299E0BB6A03F00103002B00F002
:100C70008E807B681B687A6AD2B21146184602F0F1
:100C8000E2FA38613B6903F00103002B0CD07B6A68
:100C90005A01FB69134403F530631A46012393603C
:100CA000796A786800F0D0FE3B6903F00803002BF6
:100CB0000CD07B6A5A01FB69134403F530631A4672
:100CC00008239360796A786800F0A6FF3B6903F017
:100CD0001003002B08D07B6A5A01FB69134403F50B
:100CE00030631A46102393603B6903F00203002B24
:100CF00030D03B6A5B6903F08003802B09D1FB692C
:100D000003F500635B68FA6902F5006243F48063EF
:100D100053607A6A1346DB0013449B0003F5147397
:100D20007A68134404337B617B69DB78012B08D13B
:100D30007B690022DA707B6ADBB21946786814F0AE
:100D400097FF7B6A5A01FB69134403F530631A4627
:100D5000022393603B6903F02003002B08D07B6AD9
:100D60005A01FB69134403F530631A46202393604C
:100D70003B6903F40053002B09D07B6A5A01FB69DD
:100D8000134403F530631A464FF4005393607B6AB3
:100D900001337B62BB6A5B08BB62BB6A002B7FF4DA
:100DA00062AF7B681B68184602F006FA034603F43C
:100DB0008023B3F5802F40F0DB807B681B681846EA
:100DC00002F027FAB86200237B62CDE0BB6A03F031
:100DD0000103002B00F0C2807B681B687A6AD2B2E4
:100DE0001146184602F04DFA38613B6903F00103E1
:100DF000002B57D07B6A03F00F03012202FA03F3A2
:100E0000FB60FB6903F500635A6BFB68DB43F96920
:100E100001F5006113404B637B6A5A01FB6913447F
:100E200003F510631A46012393607B689B79012BBD
:100E300032D179687A6A1346DB0013449B000B4475
:100E40002033196878687A6A1346DB0013449B00E4
:100E500003441C331B68194478687A6A1346DB0024
:100E600013449B000344203319607B6A002B13D189
:100E700079687A6A1346DB0013449B000B442433E1
:100E80001B68002B08D17B6818687B6803F29C43C1
:100E90001A46012102F056FA7B6ADBB219467868DD
:100EA00014F061FE3B6903F00803002B08D07B6A55
:100EB0005A01FB69134403F510631A460823936033
:100EC0003B6903F01003002B08D07B6A5A01FB69D1
:100ED000134403F510631A46102393603B6903F033
:100EE0004003002B08D07B6A5A01FB69134403F5C9
:100EF00010631A46402393603B6903F00203002B02
:100F000023D0796A386A01F035FA7A6A1346DB0031
:100F100013449B0010337A68134404337B617B696C
:100F2000DB78012B08D17B690022DA707B6ADBB2A7
:100F30001946786814F0AEFE7B6A5A01FB691344C7
:100F400003F510631A46022393603B6903F08003A4
:100F5000002B03D0796A786800F0EAFC7B6A0133E1
:100F60007B62BB6A5B08BB62BB6A002B7FF42EAF5F
:100F70007B681B68184602F01FF9034603F0004324
:100F8000B3F1004F22D1FB6903F500635B68FA6996
:100F900002F5006223F0010353607B6893F8CC34C0
:100FA000012B08D17B68002283F8CC2400217868CB
:100FB00000F0F4FE02E0786814F04CFE7B681B68D9
:100FC0005A697B681B6802F000425A617B681B68A3
:100FD000184602F0F1F8034603F40063B3F5006F1E
:100FE00012D1FB6903F500639B6803F00103012B39
:100FF00002D1786814F008FE7B681B685A697B6828
:101000001B6802F400625A617B681B68184602F094
:10101000D3F8034603F00063B3F1006F21D17B687E
:101020001B685A697B681B6802F000625A617B6822
:1010300093F8CC34002B11D17B68012283F8CC24A7
:101040007B681B685B6D9B0803F00F027B68C3F82D
:10105000D0240121786800F0A1FE02E0786814F045
:10106000D3FD7B681B68184602F0A6F8034603F41C
:101070008053B3F5805F40F0B780FB6903F50063F0
:101080005B68FA6902F5006223F0010353607B6834
:101090001B681021184601F06DF90023FB6246E041
:1010A000FB6A5A01FB69134403F510631A464FF6B5
:1010B0007F339360FB6A5A01FB69134403F51063A5
:1010C0001B68FA6A5101FA690A4402F5106223F4B6
:1010D00000131360FB6A5A01FB69134403F5306384
:1010E0001A464FF67F339360FB6A5A01FB6913443B
:1010F00003F530631B68FA6A5101FA690A4402F584
:10110000306223F400131360FB6A5A01FB69134435
:1011100003F530631B68FA6A5101FA690A4402F563
:10112000306243F000631360FB6A0133FB627B684B
:101130001B791A46FB6A9342B2D3FB6903F500633D
:10114000DB69FA6902F5006243F00113D3617B6841
:10115000DB7B002B16D0FB6903F50063D3F88430EA
:10116000FA6902F5006243F00B03C2F88430FB69B0
:1011700003F500635B6CFA6902F5006243F00B0350
:10118000536415E0FB6903F500635A69FB6903F5D5
:101190000063194642F22B0313434B61FB6903F5CD
:1011A00000631B69FA6902F5006243F00B031361E7
:1011B000FB6903F500631B68FA6902F5006223F41A
:1011C000FE6313607B6818687B6899797B6803F21B
:1011D0009C431A4602F0B6F87B681B685A697B6824
:1011E0001B6802F480525A617B681B68184601F044
:1011F000E3FF034603F40053B3F5005F23D17B689C
:101200001B68184602F07AF87B681B68184601F0E4
:101210002AF903461A467B68DA717B681C6803F07A
:101220003BFB01467B68DB791A46204600F034FE22
:10123000786814F0C0FC7B681B685A697B681B687F
:1012400002F400525A617B681B68184601F0B4FF33
:10125000034603F00803082B0AD1786814F09DFCBC
:101260007B681B685A697B681B6802F008025A6138
:101270007B681B68184601F09FFF034603F080035C
:10128000802B23D13B6A9B6923F080023B6A9A61E1
:1012900001237B6214E079687A6A1346DB00134409
:1012A0009B000B4403F257231B78012B05D17B6A6B
:1012B000DBB21946786800F00AFB7B6A01337B6277
:1012C0007B681B791A467B6A9342E4D37B681B6870
:1012D000184601F071FF034603F48013B3F5801F35
:1012E0003CD101237B622BE07B6A5A01FB691344EA
:1012F00003F510631B68BB6179687A6A1346DB00EB
:1013000013449B000B4418331B78012B15D1BB6988
:10131000002B12DA79687A6A1346DB0013449B00CB
:101320000B44173301221A707B6ADBB263F07F0330
:10133000DBB21946786800F0CAFA7B6A01337B6237
:101340007B681B791A467B6A9342CDD37B681B6806
:101350005A697B681B6802F480125A617B681B68BB
:10136000184601F029FF034603F40013B3F5001FEC
:1013700056D101237B6245E07B6A5A01FB69134425
:1013800003F530631B68BB6179687A6A1346DB003A
:1013900013449B000B4403F516731B78012B2ED1CD
:1013A000BB69002B2BDABB691A0C7B68D3F8D434E9
:1013B000534003F00103002B21D179687A6A134668
:1013C000DB0013449B000B4403F2572301221A70E5
:1013D0003B6A9B6943F080023B6A9A613B6A5B69A6
:1013E00003F08003002B0AD1FB6903F500635B68FF
:1013F000FA6902F5006243F40073536008E07B6A07
:1014000001337B627B681B791A467B6A9342B3D3B4
:101410007B681B685A697B681B6802F400125A617A
:101420007B681B68184601F0C7FE034603F0804343
:10143000B3F1804F0AD1786814F03EFC7B681B68DA
:101440005A697B681B6802F080425A617B681B689E
:10145000184601F0B1FE034603F00403042B15D136
:101460007B681B685B68BB61BB6903F00403002BEE
:1014700002D0786814F02EFC7B681B6859687B6882
:101480001B68BA690A435A6000E000BF3437BD46A2
:1014900090BD80B582B000AF78600B46FB707B6872
:1014A00093F89434012B01D1022312E07B680122CE
:1014B00083F894247B68FA785A747B681B68FA78FE
:1014C0001146184601F010FE7B68002283F8942430
:1014D000002318460837BD4680BD80B584B000AFF4
:1014E0007860084611461A460346FB700B463B805F
:1014F0001346BB700023FB7297F90330002B0FDA01
:10150000FB7803F00F021346DB0013449B001033FB
:101510007A6813440433FB60FB6801225A700FE0C1
:10152000FB7803F00F021346DB0013449B0003F526
:1015300014737A6813440433FB60FB6800225A700A
:10154000FB7803F00F03DAB2FB681A703B88C3F331
:101550000A02FB689A60FB68BA781A71FB685B78CC
:10156000002B04D0FB681B781A46FB685A83BB78B3
:10157000022B02D1FB6800225A717B6893F89434E5
:10158000012B01D102230EE07B68012283F8942411
:101590007B681B68F968184600F08AFF7B680022A8
:1015A00083F89424FB7A18461037BD4680BD80B579
:1015B00084B000AF78600B46FB7097F90330002BC6
:1015C0000FDAFB7803F00F021346DB0013449B0095
:1015D00010337A6813440433FB60FB6801225A70AD
:1015E0000FE0FB7803F00F021346DB0013449B006F
:1015F00003F514737A6813440433FB60FB6800221C
:101600005A70FB7803F00F03DAB2FB681A707B683C
:1016100093F89434012B01D102230EE07B68012260
:1016200083F894247B681B68F968184600F0C8FFAB
:101630007B68002283F89424002318461037BD46A7
:1016400080BD80B586B000AFF8607A603B600B4625
:10165000FB72FB7A03F00F021346DB0013449B007E
:1016600003F51473FA68134404337B617B697A6869
:10167000DA607B693A681A617B6900225A617B698A
:1016800000225A70FB7A03F00F03DAB27B691A70FA
:10169000FB689B79012B02D17A687B69DA61FB6870
:1016A0001868FB689B791A46796901F065F8002390
:1016B00018461837BD4680BD80B483B000AF78604F
:1016C0000B46FB70FB7803F00F0279681346DB00D2
:1016D00013449B000B4403F51A731B6818460C3720
:1016E000BD465DF8047B704780B586B000AFF860FA
:1016F0007A603B600B46FB72FB7A03F00F021346E5
:10170000DB0013449B001033FA68134404337B61FD
:101710007B697A68DA607B693A681A617B690022C2
:101720005A617B6901225A70FB7A03F00F03DAB227
:101730007B691A70FB689B79012B02D17A687B69FF
:10174000DA61FB681868FB689B791A46796901F0D1
:1017500013F8002318461837BD4680BD80B584B005
:1017600000AF78600B46FB70FB7803F00F037A68DC
:101770001279934201D901234FE097F90330002BEE
:101780000FDAFB7803F00F021346DB0013449B00D3
:1017900010337A6813440433FB60FB6801225A70EB
:1017A0000DE0FA781346DB0013449B0003F5147335
:1017B0007A6813440433FB60FB6800225A70FB68AC
:1017C00001229A70FB7803F00F03DAB2FB681A70FB
:1017D0007B6893F89434012B01D102231DE07B68D0
:1017E000012283F894247B681B68F968184601F08D
:1017F000A7FBFB7803F00F03002B09D17B68186867
:101800007B6899797B6803F29C431A4601F09AFD44
:101810007B68002283F89424002318461037BD46C5
:1018200080BD80B584B000AF78600B46FB70FB785C
:1018300003F00F037A681279934201D9012342E041
:1018400097F90330002B0FDAFB7803F00F021346F1
:10185000DB0013449B0010337A6813440433FB60AD
:10186000FB6801225A700FE0FB7803F00F02134669
:10187000DB0013449B0003F514737A6813440433AC
:10188000FB60FB6800225A70FB6800229A70FB78AC
:1018900003F00F03DAB2FB681A707B6893F8943494
:1018A000012B01D102230EE07B68012283F89424EE
:1018B0007B681B68F968184601F0B0FB7B68002262
:1018C00083F89424002318461037BD4680BD80B5A8
:1018D00084B000AF78600B46FB7097F90330002BA3
:1018E0000CDAFB7803F00F021346DB0013449B0075
:1018F00010337A6813440433FB600CE0FB7803F088
:101900000F021346DB0013449B0003F514737A683F
:1019100013440433FB607B681B68F968184601F0C8
:10192000CFF90346FB72FB7A18461037BD4680BDDF
:1019300080B58AB002AF786039607B681B687B61D4
:101940007B693B613A681346DB0013449B0010330C
:101950007A6813440433FB60FB685A69FB681B69AF
:101960009A4201D901236BE0FB681A69FB685B6945
:10197000D31AFB61FB689B68FA699A4202D9FB683B
:101980009B68FB61FB6903339B08BB612AE0FB6832
:101990001A69FB685B69D31AFB61FB689B68FA698B
:1019A0009A4202D9FB689B68FB61FB6903339B0881
:1019B000BB61FB68D9683B68DAB2FB6998B27B68A7
:1019C0009B7900930346786901F024FAFB68DA6892
:1019D000FB691A44FB68DA60FB685A69FB691A44C0
:1019E000FB685A613B685A013B69134403F5106375
:1019F0009B699BB2BA699A4209D8FB685A69FB682D
:101A00001B699A4203D2FB681B69002BBFD1FB689C
:101A10001A69FB685B699A4211D83B6803F00F03AF
:101A2000012202FA03F3BB603B6903F500635A6BC2
:101A3000BB68DB43396901F5006113404B63002348
:101A400018462037BD4680BD80B588B000AF7860AD
:101A500039607B681B68FB61FB69BB61FB693C33D8
:101A600004331B687B613B685A01BB69134403F56F
:101A700030639B683B617B689B79012B7BD13B6921
:101A800003F00803002B15D07B69614A934240F2B2
:101A9000B9803B6903F40043002B00F0B3803B683E
:101AA0005A01BB69134403F530631A464FF40043EF
:101AB0009360A7E03B6903F02003002B09D03B684B
:101AC0005A01BB69134403F530631A46202393601F
:101AD00098E03B6903F02803002B40F093807B697A
:101AE0004B4A93420FD93B6903F40043002B0AD0C1
:101AF0003B685A01BB69134403F530631A464FF43F
:101B0000004393607EE03A681346DB0013449B0079
:101B100003F514737A6813440433FB60FB681A6A94
:101B20003B685901BB690B4403F530631B69C3F380
:101B30001203D21AFB685A613B68002B14D1FB6870
:101B40001B69002B09D17B6818687B6803F29C43F2
:101B50001A46012101F0F6FB06E0FB68DA68FB6833
:101B60005B691A44FB68DA603B68DBB21946786847
:101B700013F0DEFF46E07B69264A934224D13B699D
:101B800003F40043002B0AD03B685A01BB6913449D
:101B900003F530631A464FF40043936032E03B692B
:101BA00003F02003002B08D03B685A01BB691344A3
:101BB00003F530631A46202393603B68DBB2194675
:101BC000786813F0B5FF1DE03B68002B14D17968ED
:101BD0003A681346DB0013449B000B4403F519736A
:101BE0001B68002B08D17B6818687B6803F29C4354
:101BF0001A46002101F0A6FB3B68DBB21946786863
:101C000013F096FF002318462037BD4680BD00BF65
:101C10000A30544F0A31544F80B586B000AF786017
:101C200039607B681B687B617B693B617B693C3306
:101C300004331B68FB603B685A013B69134403F59E
:101C400030639B68BB60FB68154A93420ED9BB6842
:101C500003F40043002B09D03B685A013B6913444D
:101C600003F530631A464FF400439360786813F02D
:101C70004DFFFB680A4A93420CD97B689B79012B84
:101C800008D17B6818687B6803F29C431A460121DF
:101C900001F058FB002318461837BD4680BD00BF31
:101CA0000A30544F80B485B000AF78600B46FB70AB
:101CB00013463B807B681B685B6ABB60FB78002B2C
:101CC00007D13B8819047B681B68BA680A439A628B
:101CD00028E07B681B689B6A1B0CBA681344BB60D6
:101CE0000023FB730DE07B681A68FB7B40339B008D
:101CF00013445B681B0CBA681344BB60FB7B013365
:101D0000FB73FA7BFB78013B9A42ECD33B881804C7
:101D10007B681968FB78013BBA68024340339B003B
:101D20000B445A60002318461437BD465DF8047B07
:101D3000704780B483B000AF78600B467B807B68CF
:101D40001B687A885A62002318460C37BD465DF836
:101D5000047B704780B485B000AF78607B681B68F7
:101D6000FB607B680122C3F8D8247B68002283F8DB
:101D7000CC24FB689B6943F00062FB689A61FB68B6
:101D80005A6D054B1343FA68536500231846143700
:101D9000BD465DF8047B70470300001080B483B03B
:101DA00000AF78600B46FB7000BF0C37BD465DF896
:101DB000047B704784B080B584B000AF786007F1D1
:101DC0001C0080E80E0097F82130012B21D17B68A0
:101DD0009B6B23F480327B689A637B68DA682C4BB8
:101DE00013407A68D3607B68DB6823F440127B6819
:101DF000DA6097F82830012B05D17B68DB6843F463
:101E000080127B68DA60786801F0FAFA0346FB73A7
:101E10001BE07B68DB6843F040027B68DA6078682F
:101E200001F0EEFA0346FB7397F82530002B06D13C
:101E30007B689B6B43F480327B689A6305E07B6828
:101E40009B6B23F480327B689A63BB7F012B16D196
:101E50007B68DB6D9AB27B68DA657B68DA6D0D4B67
:101E600013437A68D3657B689B6843F006027B68FE
:101E70009A607B689B6843F020027B689A60FB7BDA
:101E800018461037BD46BDE8804004B0704700BF1B
:101E9000BFFFBDFF0000EE0380B487B000AFF86065
:101EA000B9601346FB71FB79022B65D1BB68414ACF
:101EB000934206D9BB68404A934202D20F237B610A
:101EC00062E0BB683C4A934206D3BB683B4A9342FC
:101ED00002D20E237B6157E0BB68384A934206D397
:101EE000BB68374A934202D20D237B614CE0BB684A
:101EF000334A934206D3BB68324A934202D80C233A
:101F00007B6141E0BB682F4A934206D9BB682E4AE9
:101F1000934202D80B237B6136E0BB682A4A934286
:101F200006D9BB68294A934202D80A237B612BE079
:101F3000BB68264A934206D9BB68254A934202D21F
:101F400009237B6120E0BB68214A934206D3BB682A
:101F5000204A934202D808237B6115E0BB681D4AE2
:101F6000934206D9BB681C4A934202D207237B6185
:101F70000AE006237B6107E0FB79002B02D10923ED
:101F80007B6101E009237B61FB68DB6823F470520D
:101F9000FB68DA60FB68DA687B699B0203F47053C4
:101FA0001A43FB68DA60002318461C37BD465DF80B
:101FB000047B7047BFACD800C0E1E4000024F4000B
:101FC000807306019F491A01FF2C31013FA44C0187
:101FD00000366E011FABA6010048E80180B483B053
:101FE00000AF78607B689B6843F001027B689A6071
:101FF000002318460C37BD465DF8047B704780B45B
:1020000083B000AF78607B689B6823F001027B6837
:102010009A60002318460C37BD465DF8047B704774
:1020200080B584B000AF78600B46FB700023FB6086
:102030007B68DB6823F0C0427B68DA60FB78012BA9
:1020400015D17B68DB6843F000527B68DA600A20B8
:1020500008F08EF8FB680A33FB60786801F03FF9FE
:102060000346012B1ED0FB68C72BF0D91AE0FB7882
:10207000002B15D17B68DB6843F080427B68DA6017
:102080000A2008F075F8FB680A33FB60786801F0F5
:1020900026F90346002B05D0FB68C72BF0D901E0D9
:1020A000012305E0FB68C82B01D1012300E00023D8
:1020B00018461037BD4680BD84B080B586B000AFED
:1020C000786007F1240080E80E000023FB757B6830
:1020D000FB6000233B6109E07A683B6940339B0069
:1020E000134400225A603B6901333B613B690E2B6C
:1020F000F2D997F82E30002B1CD1FB6803F5006352
:102100005B68FA6802F5006243F0020353607B6883
:102110009B6B23F400127B689A637B681B6843F017
:1021200040027B681A607B681B6843F080027B6812
:102130001A6005E07B689B6B43F400127B689A632E
:10214000FB6803F560631A460023136097F8293093
:10215000012B0DD197F82730002B04D1002178688E
:1021600000F068F908E00121786800F063F903E005
:102170000321786800F05EF91021786800F0FAF821
:102180000346002B01D00123FB75786800F024F989
:102190000346002B01D00123FB75FB6803F50063A8
:1021A0001A4600231361FB6803F500631A460023F7
:1021B0005361FB6803F500631A460023D3610023D3
:1021C0003B6143E03B695A01FB68134403F510632C
:1021D0001B6803F00043B3F1004F18D13B69002B9B
:1021E0000AD13B695A01FB68134403F510631A4690
:1021F0004FF00063136013E03B695A01FB6813441E
:1022000003F510631A464FF09043136008E03B69F2
:102210005A01FB68134403F510631A460023136048
:102220003B695A01FB68134403F510631A46002307
:1022300013613B695A01FB68134403F510631A46A6
:102240004FF67F3393603B6901333B6197F824304D
:102250001A463B699342B5D300233B6143E03B6997
:102260005A01FB68134403F530631B6803F0004315
:10227000B3F1004F18D13B69002B0AD13B695A01D9
:10228000FB68134403F530631A464FF00063136094
:1022900013E03B695A01FB68134403F530631A46A7
:1022A0004FF09043136008E03B695A01FB68134408
:1022B00003F530631A46002313603B695A01FB683B
:1022C000134403F530631A46002313613B695A0136
:1022D000FB68134403F530631A464FF67F3393606F
:1022E0003B6901333B6197F824301A463B699342BE
:1022F000B5D3FB6803F500631B69FA6802F5006259
:1023000023F4807313617B6800229A617B686FF00D
:1023100080425A6197F82630002B05D17B689B6973
:1023200043F010027B689A617B689A690F4B1343F4
:102330007A68936197F82A30002B05D07B689B69F7
:1023400043F008027B689A6197F82E30012B05D183
:102350007B689A69064B13437A689361FB7D184644
:102360001837BD46BDE8804004B0704700383C8057
:102370000400004080B485B000AF7860396000236D
:10238000FB60FB680133FB60FB68B3F1706F01D940
:1023900003231BE07B681B69002BF2DA0023FB6040
:1023A0003B689B0143F020027B681A61FB680133A4
:1023B000FB60FB68B3F1706F01D9032306E07B6813
:1023C0001B6903F02003202BF0D00023184614379C
:1023D000BD465DF8047B704780B485B000AF78607F
:1023E0000023FB60FB680133FB60FB68B3F1706F97
:1023F00001D9032318E07B681B69002BF2DA002364
:10240000FB607B6810221A61FB680133FB60FB688C
:10241000B3F1706F01D9032306E07B681B6903F0F9
:102420001003102BF0D0002318461437BD465DF87A
:10243000047B704780B485B000AF78600B46FB70BA
:102440007B68FB60FB6803F500631A68FB78F9683A
:1024500001F5006113430B60002318461437BD4695
:102460005DF8047B704780B487B000AF78607B680C
:102470003B613B6903F500639B6803F00603FB6067
:10248000FB68002B02D10023FB750AE0FB68022BDE
:1024900002D0FB68062B02D10223FB7501E00F235B
:1024A000FB75FB7D18461C37BD465DF8047B704705
:1024B00080B485B000AF786039607B68FB603B68B2
:1024C0001B78BB603B685B78012B39D1FB6803F557
:1024D0000063DA693B681B7803F00F03012101FAFE
:1024E00003F39BB2F96801F500611343CB61BB684C
:1024F0005A01FB68134403F510631B6803F400439F
:10250000002B53D1BB685A01FB68134403F51063D9
:102510001A683B689B68C3F30A013B681B799B04FC
:102520001943BB689B050B431A43BB685901FB6801
:102530000B4403F510631946204B13430B6035E041
:10254000FB6803F50063DA693B681B7803F00F034F
:10255000012101FA03F31B04F96801F5006113433B
:10256000CB61BB685A01FB68134403F530631B68F9
:1025700003F40043002B19D1BB685A01FB681344D4
:1025800003F530631A683B689B68C3F30A013B6834
:102590001B799B040B431A43BB685901FB680B442E
:1025A00003F530631946054B13430B6000231846AF
:1025B0001437BD465DF8047B704700BF00800010F3
:1025C00080B485B000AF786039607B68FB603B68A1
:1025D0001B78BB603B685B78012B61D1BB685A01FB
:1025E000FB68134403F510631B6803F00043B3F169
:1025F000004F1FD1BB685A01FB68134403F51063F9
:102600001B68BA685101FA680A4402F5106243F087
:1026100000631360BB685A01FB68134403F5106341
:102620001B68BA685101FA680A4402F5106243F067
:1026300080431360FB6803F50063DA6B3B681B782B
:1026400003F00F03012101FA03F39BB2DB43F968A6
:1026500001F500611340CB63FB6803F50063DA69A1
:102660003B681B7803F00F03012101FA03F39BB2CF
:10267000DB43F96801F500611340CB61BB685A0187
:10268000FB68134403F510631A68BB685901FB68C3
:102690000B4403F510631946354B13400B6060E0A3
:1026A000BB685A01FB68134403F530631B6803F0F1
:1026B0000043B3F1004F1FD1BB685A01FB681344BC
:1026C00003F530631B68BA685101FA680A4402F5E1
:1026D000306243F000631360BB685A01FB68134427
:1026E00003F530631B68BA685101FA680A4402F5C1
:1026F000306243F080431360FB6803F50063DA6BDC
:102700003B681B7803F00F03012101FA03F31B045C
:10271000DB43F96801F500611340CB63FB6803F507
:102720000063DA693B681B7803F00F03012101FAAB
:1027300003F31B04DB43F96801F500611340CB612F
:10274000BB685A01FB68134403F530631A68BB6821
:102750005901FB680B4403F530631946054B1340E0
:102760000B60002318461437BD465DF8047B7047A4
:10277000007833EC0078F3EF80B58AB002AFF860F0
:10278000B9601346FB71FB68FB61BB681B78BB61DA
:10279000BB685B78012B40F08581BB681B69002B0F
:1027A00032D1BB695A01FB69134403F510631A69FE
:1027B000BB695901FB690B4403F510631946A74B2C
:1027C00013400B61BB695A01FB69134403F51063A5
:1027D0001B69BA695101FA690A4402F5106243F4AF
:1027E00000231361BB695A01FB69134403F51063AD
:1027F0001A69BB695901FB690B4403F5106319465B
:10280000974B13400B6197E0BB695A01FB69134476
:1028100003F510631A69BB695901FB690B4403F5A1
:10282000106319468E4B13400B61BB695A01FB695B
:10283000134403F510631A69BB695901FB690B4422
:1028400003F510631946854B13400B61BB69002BE0
:102850001AD1BB681A69BB689B689A4203D9BB68E6
:102860009A68BB681A61BB695A01FB69134403F596
:1028700010631B69BA695101FA690A4402F51062D2
:1028800043F40023136144E0BB681A69BB689B688A
:1028900013445A1EBB689B68B2FBF3F3FB82BB690F
:1028A0005A01FB69134403F510631A69FB8AD904C2
:1028B0006C4B0B40B9694801F969014401F510619D
:1028C00013430B61BB681B79012B22D1BB695A01F1
:1028D000FB69134403F510631B69BA695101FA6976
:1028E0000A4402F5106223F0C0431361BB695A0128
:1028F000FB69134403F510631A69FB8A5B0703F055
:10290000C043B9694801F969014401F510611343F5
:102910000B61BB695A01FB69134403F510631A6923
:10292000BB681B69C3F31203B9694801F969014423
:1029300001F5106113430B61FB79012B4BD1BB688F
:10294000DB69002B09D0BB695A01FB69134403F50D
:1029500010631A46BB68DB695361BB681B79012BA6
:1029600028D1FB6903F500639B6803F48073002B97
:1029700010D1BB695A01FB69134403F510631B684E
:10298000BA695101FA690A4402F5106243F0005332
:1029900013600FE0BB695A01FB69134403F5106330
:1029A0001B68BA695101FA690A4402F5106243F0E2
:1029B00080531360BB695A01FB69134403F510632C
:1029C0001B68BA695101FA690A4402F5106243F0C2
:1029D0000443136069E1BB695A01FB69134403F5C1
:1029E00010631B68BA695101FA690A4402F5106262
:1029F00043F004431360BB681B79012B15D0BB68FF
:102A00001B69002B00F05181FB6903F500635A6BD1
:102A1000BB681B7803F00F03012101FA03F3F96986
:102A200001F5006113434B633FE1FB6903F500636C
:102A30009B6803F48073002B16D1BB695A01FB69B4
:102A4000134403F510631B68BA695101FA690A441B
:102A500002F5106243F00053136015E0FFFF07E03A
:102A60000000F8FF0000F81FBB695A01FB6913441E
:102A700003F510631B68BA695101FA690A4402F54B
:102A8000106243F080531360BB68D968BB681A7842
:102A9000BB681B6998B2FB7900930346F86800F0A5
:102AA000B9F902E1BB695A01FB69134403F53063CC
:102AB0001A69BB695901FB690B4403F53063194678
:102AC0007C4B13400B61BB695A01FB69134403F54E
:102AD00030631A69BB695901FB690B4403F5306324
:102AE0001946754B13400B61BB69002B2FD1BB6896
:102AF0001B69002B03D0BB689A68BB681A61BB686E
:102B00009A68BB681A62BB695A01FB69134403F5F2
:102B100030631A69BB681B6AC3F31203B9694801C1
:102B2000F969014401F5306113430B61BB695A0136
:102B3000FB69134403F530631B69BA695101FA69F3
:102B40000A4402F5306243F4002313615FE0BB687E
:102B50001B69002B23D1BB695A01FB69134403F5A0
:102B600030631A69BB689B68C3F31203B9694801F3
:102B7000F969014401F5306113430B61BB695A01E6
:102B8000FB69134403F530631B69BA695101FA69A3
:102B90000A4402F5306243F40023136137E0BB6856
:102BA0001A69BB689B6813445A1EBB689B68B2FBDA
:102BB000F3F3FB82BB689B68FA8A03FB02F2BB68F3
:102BC0001A62BB695A01FB69134403F530631A6941
:102BD000FB8AD904394B0B40B9694801F9690144B2
:102BE00001F5306113430B61BB695A01FB69134462
:102BF00003F530631A69BB681B6AC3F31203B96932
:102C00004801F969014401F5306113430B61FB7917
:102C1000012B0DD1BB68DB68002B09D0BB68D968DC
:102C2000BB695A01FB69134403F530630A465A61D4
:102C3000BB681B79012B28D1FB6903F500639B68F6
:102C400003F48073002B10D1BB695A01FB69134454
:102C500003F530631B68BA695101FA690A4402F549
:102C6000306243F0005313600FE0BB695A01FB6907
:102C7000134403F530631B68BA695101FA690A44C9
:102C800002F5306243F080531360BB695A01FB695F
:102C9000134403F530631B68BA695101FA690A44A9
:102CA00002F5306243F004431360002318462037D6
:102CB000BD4680BD0000F8FFFFFF07E00000F81FE1
:102CC00080B487B000AF786039600023FB600023D8
:102CD000FB757B683B613B685B78012B4AD13B68A5
:102CE0001B785A013B69134403F510631B6803F01A
:102CF0000043B3F1004F40F086803B681B785A01D7
:102D00003B69134403F510631B683A68127851015C
:102D10003A690A4402F5106243F0006313603B68AD
:102D20001B785A013B69134403F510631B683A682A
:102D3000127851013A690A4402F5106243F0804367
:102D40001360FB680133FB60FB6842F21072934230
:102D500002D90123FB7556E03B681B785A013B6999
:102D6000134403F510631B6803F00043B3F1004FF5
:102D7000E7D048E03B681B785A013B69134403F5F0
:102D800030631B6803F00043B3F1004F3BD13B6855
:102D90001B785A013B69134403F530631B683A689A
:102DA000127851013A690A4402F5306243F0006337
:102DB00013603B681B785A013B69134403F5306389
:102DC0001B683A68127851013A690A4402F5306288
:102DD00043F080431360FB680133FB60FB6842F201
:102DE0001072934202D90123FB750CE03B681B78FB
:102DF0005A013B69134403F530631B6803F0004339
:102E0000B3F1004FE7D0FB7D18461C37BD465DF897
:102E1000047B704780B489B000AFF860B960114698
:102E20001A460B46FB711346BB80FB687B61BB688F
:102E3000FB6197F82830002B23D1BB8803339B0814
:102E40003B610023BB6118E0FB791A037B691344E3
:102E500003F580531A46FB691B681360FB69013355
:102E6000FB61FB690133FB61FB690133FB61FB69BA
:102E70000133FB61BB690133BB61BA693B699A42AB
:102E8000E2D3002318462437BD465DF8047B704723
:102E900080B48BB000AFF860B9601346FB80FB686C
:102EA000BB61BB687B62FB889B089BB27B61FB8834
:102EB00003F00303FB8300233B6214E0BB6903F5CB
:102EC00080531A687B6A1A607B6A01337B627B6A73
:102ED00001337B627B6A01337B627B6A01337B62F5
:102EE0003B6A01333B623A6A7B699A42E6D3FB8BC9
:102EF000002B1ED000233B62BB6903F580531A46AA
:102F000007F1100312681A603A693B6ADBB2DB0012
:102F100022FA03F3DAB27B6A1A703B6A01333B622E
:102F20007B6A01337B62FB8B013BFB83FB8B002BBA
:102F3000EAD17B6A18462C37BD465DF8047B7047A2
:102F400080B485B000AF786039607B68FB603B6817
:102F50001B78BB603B685B78012B2CD1BB685A01A6
:102F6000FB68134403F510631B68002B12DBBB687E
:102F7000002B0FD0BB685A01FB68134403F51063A4
:102F80001B68BA685101FA680A4402F5106223F01E
:102F900080431360BB685A01FB68134403F5106358
:102FA0001B68BA685101FA680A4402F5106243F4DA
:102FB000001313602BE0BB685A01FB68134403F550
:102FC00030631B68002B12DBBB68002B0FD0BB6883
:102FD0005A01FB68134403F530631B68BA6851015A
:102FE000FA680A4402F5306223F080431360BB683C
:102FF0005A01FB68134403F530631B68BA6851013A
:10300000FA680A4402F5306243F4001313600023A7
:1030100018461437BD465DF8047B704780B485B010
:1030200000AF786039607B68FB603B681B78BB60F1
:103030003B685B78012B28D1BB685A01FB681344BD
:1030400003F510631B68BA685101FA680A4402F577
:10305000106223F4001313603B681B79032B03D029
:103060003B681B79022B38D1BB685A01FB681344BB
:1030700003F510631B68BA685101FA680A4402F547
:10308000106243F08053136027E0BB685A01FB686D
:10309000134403F530631B68BA685101FA680A44A7
:1030A00002F5306223F4001313603B681B79032B95
:1030B00003D03B681B79022B0FD1BB685A01FB6818
:1030C000134403F530631B68BA685101FA680A4477
:1030D00002F5306243F08053136000231846143722
:1030E000BD465DF8047B704780B485B000AF786062
:1030F0000B46FB707B68FB60FB6803F500631B6895
:10310000FA6802F5006223F4FE631360FB6803F5BE
:1031100000631A68FB781B0103F4FE63F96801F58C
:10312000006113430B60002318461437BD465DF859
:10313000047B704780B485B000AF78607B68FB602B
:10314000FB6803F560631B68FA6802F5606223F0B0
:1031500003031360FB6803F500635B68FA6802F51C
:10316000006223F002035360002318461437BD4663
:103170005DF8047B704780B485B000AF78607B68F1
:10318000FB60FB6803F560631B68FA6802F5606228
:1031900023F003031360FB6803F500635B68FA68C0
:1031A00002F5006243F0020353600023184614370F
:1031B000BD465DF8047B704780B485B000AF786091
:1031C0007B685B69FB607B689B69FA681340FB6006
:1031D000FB6818461437BD465DF8047B704780B421
:1031E00085B000AF78607B68FB60FB6803F5006327
:1031F0009B69BB60FB6803F50063DB69BA68134039
:10320000BB60BB681B0C18461437BD465DF8047BD9
:10321000704780B485B000AF78607B68FB60FB6866
:1032200003F500639B69BB60FB6803F50063DB6922
:10323000BA681340BB60BB689BB218461437BD46E2
:103240005DF8047B704780B485B000AF78600B46B2
:10325000FB707B68FB60FB785A01FB68134403F545
:1032600030639B68BB60FB6803F500635B69BA6809
:103270001340BB60BB6818461437BD465DF8047B3D
:10328000704780B487B000AF78600B46FB707B68F6
:103290007B617B6903F500631B693B617B6903F517
:1032A00000635B6BFB60FB7803F00F03FA6822FAA4
:1032B00003F3DB01DBB23A6913433B61FB785A014C
:1032C0007B69134403F510639B683A691340BB6044
:1032D000BB6818461C37BD465DF8047B704780B458
:1032E00083B000AF78607B685B6903F00103184628
:1032F0000C37BD465DF8047B7047000080B485B094
:1033000000AF78607B68FB60FB6803F510631A68A8
:10331000FB6803F510631946094B13400B60FB680B
:1033200003F500635B68FA6802F5006243F480739A
:103330005360002318461437BD465DF8047B704780
:1033400000F8FFFF80B487B000AFF8600B467A60EA
:10335000FB72FB687B61FB683C3304331B683B6199
:103360003B69264A93420AD97B6903F530631B689F
:1033700003F00043B3F1004F01D1002337E07B6934
:1033800003F530631A46002313617B6903F530634C
:103390001B697A6902F5306243F4002313617B698B
:1033A00003F530631B697A6902F5306243F0180354
:1033B00013617B6903F530631B697A6902F530623A
:1033C00043F0C0431361FB7A012B0FD17B6903F5F6
:1033D00030631A467B6853617B6903F530631B6871
:1033E0007A6902F5306243F08023136000231846A7
:1033F0001C37BD465DF8047B704700BF0A30544F50
:1034000080B485B000AF78600023FB60FB680133B7
:10341000FB60FB68B3F1706F01D903231BE07B688D
:103420001B69002BF2DA0023FB607B681B6943F009
:1034300001027B681A61FB680133FB60FB68B3F132
:10344000706F01D9032306E07B681B6903F0010359
:10345000012BF0D0002318461437BD465DF8047BDD
:103460007047000080B58CB000AF78607B68002B9F
:1034700002D1012300F01CBD7B681B68002B28D003
:103480007B681B6803F00103002B22D17B681B685B
:1034900003F00203002B1CD17B681B6803F01003B0
:1034A000002B16D17B681B6803F00803002B10D19A
:1034B0007B681B6803F00403002B0AD17B681B6840
:1034C00003F02003002B04D140F2A111954810F025
:1034D00001FE7B681B6803F00103002B00F09D8058
:1034E0007B685B68002B0ED07B685B68B3F5803F20
:1034F00009D07B685B68B3F5A02F04D04FF4D3717B
:10350000884810F0E7FD884B1B6903F03803FB6225
:10351000854B9B6ABB62FB6A102B07D0FB6A182B9A
:1035200011D1BB6A03F00303022B0CD17E4B1B6845
:1035300003F40033002B6FD07B685B68002B6BD1EA
:10354000012300F0B5BC7B685B68B3F5803F06D112
:10355000754B1B68744A43F4803313602EE07B681C
:103560005B68002B0CD1704B1B686F4A23F48033CF
:1035700013606D4B1B686C4A23F4802313601DE0BD
:103580007B685B68B3F5A02F0CD1674B1B68664A5C
:1035900043F480231360644B1B68634A43F4803315
:1035A00013600BE0604B1B685F4A23F480331360A9
:1035B0005D4B1B685C4A23F4802313607B685B6867
:1035C000002B14D006F0C8FD786209E006F0C4FDB7
:1035D00002467B6AD31A642B02D9032300F068BC2D
:1035E000514B1B6803F40033002BEFD015E006F0BD
:1035F000B3FD786209E006F0AFFD02467B6AD31A9C
:10360000642B02D9032300F053BC474B1B6803F41F
:103610000033002BEFD100E000BF7B681B6803F094
:103620000203002B00F0B5807B68DB68002B18D00C
:103630007B68DB68012B14D07B68DB68012B10D022
:103640007B68DB68092B0CD07B68DB68112B08D00A
:103650007B68DB68192B04D04FF4ED71314810F012
:1036600039FD7B681B697F2B04D940F2DB112D48A3
:1036700010F030FD2C4B1B6903F038033B622A4BE2
:103680009B6AFB613B6A002B07D03B6A182B37D142
:10369000FB6903F00303002B32D1234B1B6803F0BB
:1036A0000403002B05D07B68DB68002B01D10123CC
:1036B000FEE31D4B1B6823F019027B68DB681A4987
:1036C00013430B6006F048FD786208E006F044FD05
:1036D00002467B6AD31A022B01D90323E8E3124B7B
:1036E0001B6803F00403002BF0D00F4B5B6823F042
:1036F000FE427B681B691B060B4913434B6048E085
:103700007B68DB68002B2BD0074B1B6823F019026A
:103710007B68DB68044913430B6006F01DFD78628B
:103720000DE000BF686A01080044025806F014FD6D
:1037300002467B6AD31A022B01D90323B8E39B4BC1
:103740001B6803F00403002BF0D0984B5B6823F058
:10375000FE427B681B691B06944913434B6018E0CB
:10376000924B1B68914A23F00103136006F0F4FCAE
:10377000786208E006F0F0FC02467B6AD31A022B5E
:1037800001D9032394E3894B1B6803F00403002B46
:10379000F0D17B681B6803F01003002B00F08180E0
:1037A0007B68DB69002B08D07B68DB69802B04D049
:1037B00040F22B217E4810F08DFC7B681B6A3F2B6A
:1037C00004D94FF40B717A4810F084FC774B1B69D5
:1037D00003F03803BB61754B9B6A7B61BB69082BA7
:1037E00007D0BB69182B1BD17B6903F00303012BA6
:1037F00016D16E4B1B6803F48073002B05D07B68D9
:10380000DB69802B01D0012352E3684BDB6823F096
:103810007C527B681B6A1B0664491343CB6040E003
:103820007B68DB69002B23D0604B1B685F4A43F049
:103830008003136006F090FC786208E006F08CFCD0
:1038400002467B6AD31A022B01D9032330E3574B7C
:103850001B6803F48073002BF0D0544BDB6823F01B
:103860007C527B681B6A1B0650491343CB6018E0EF
:103870004E4B1B684D4A23F08003136006F06CFC2E
:10388000786208E006F068FC02467B6AD31A022BD5
:1038900001D903230CE3454B1B6803F48073002B11
:1038A000F0D17B681B6803F00803002B43D07B68D2
:1038B0005B69002B08D07B685B69012B04D040F268
:1038C0006D213B4810F006FC7B685B69002B19D02A
:1038D000364B5B6F354A43F00103536706F03CFCFF
:1038E000786208E006F038FC02467B6AD31A022BA5
:1038F00001D90323DCE22D4B5B6F03F00203002BA5
:10390000F0D018E0294B5B6F284A23F0010353677E
:1039100006F022FC786208E006F01EFC02467B6A94
:10392000D31A022B01D90323C2E2204B5B6F03F0B1
:103930000203002BF0D17B681B6803F02003002BEF
:1039400047D07B689B69002B08D07B689B69012B63
:1039500004D04FF42671164810F0BCFB7B689B69BD
:10396000002B19D0114B1B68104A43F4805313608D
:1039700006F0F2FB786208E006F0EEFB02467B6A96
:10398000D31A022B01D9032392E2084B1B6803F4DC
:103990000053002BF0D01CE0044B1B68034A23F4B7
:1039A0008053136006F0D8FB78620CE000440258A4
:1039B000686A010806F0D0FB02467B6AD31A022B24
:1039C00001D9032374E24C4B1B6803F40053002B12
:1039D000F0D17B681B6803F00403002B00F0988093
:1039E0007B689B68002B0CD07B689B68012B08D000
:1039F0007B689B68052B04D040F2C2213F4810F041
:103A000069FB3F4B1B683E4A43F48073136006F02A
:103A1000A3FB786208E006F09FFB02467B6AD31A9C
:103A2000642B01D9032343E2354B1B6803F48073F5
:103A3000002BF0D07B689B68012B06D12E4B1B6FAF
:103A40002D4A43F0010313672DE07B689B68002B30
:103A50000CD1294B1B6F284A23F001031367264B17
:103A60001B6F254A23F0040313671CE07B689B68E7
:103A7000052B0CD1204B1B6F1F4A43F00403136727
:103A80001D4B1B6F1C4A43F0010313670BE01A4BDD
:103A90001B6F194A23F001031367174B1B6F164A5C
:103AA00023F0040313677B689B68002B15D006F096
:103AB00053FB78620AE006F04FFB02467B6AD31A9A
:103AC00041F28832934201D90323F1E10A4B1B6F83
:103AD00003F00203002BEED01AE006F03DFB786203
:103AE00010E006F039FB02467B6AD31A41F28832B5
:103AF000934207D90323DBE100440258686A0108B6
:103B000000480258974B1B6F03F00203002BE8D1CB
:103B10007B685B6A002B0CD07B685B6A012B08D04A
:103B20007B685B6A022B04D04FF43D718E4810F025
:103B3000D1FA7B685B6A002B00F0B981894B1B6965
:103B400003F03803182B00F03F817B685B6A022B7F
:103B500040F020817B689B6A012B10D07B689B6AB8
:103B6000002B0CD07B689B6A032B08D07B689B6A78
:103B7000022B04D040F2FD217B4810F0ABFA7B68A9
:103B80001B6C002B10D07B681B6C042B0CD07B684B
:103B90001B6C082B08D07B681B6C0C2B04D040F2EC
:103BA000FE21714810F096FA7B685B6C002B08D000
:103BB0007B685B6C022B04D040F2FF216A4810F056
:103BC00089FA7B68DB6A002B03D07B68DB6A3F2BBA
:103BD00004D94FF44071644810F07CFA7B681B6B89
:103BE000032B04D97B681B6BB3F5007F04D940F22B
:103BF00001315D4810F06EFA7B685B6B002B03D0DF
:103C00007B685B6B802B04D940F20231564810F080
:103C100061FA7B689B6B002B03D07B689B6B802BCE
:103C200004D940F20331504810F054FA7B68DB6B42
:103C3000002B03D07B68DB6B802B04D94FF44171E0
:103C4000494810F047FA7B689B6CB3F5005F04D3DA
:103C500040F20531444810F03DFA424B1B68414A9E
:103C600023F08073136006F077FA786208E006F0BC
:103C700073FA02467B6AD31A022B01D9032317E198
:103C8000384B1B6803F00073002BF0D1354B9A6A58
:103C9000364B13407A68916A7A68D26A12010A43F5
:103CA000304913438B627B681B6B013BC3F30802F3
:103CB0007B685B6B013B5B029BB21A437B689B6B2F
:103CC000013B1B0403F4FE031A437B68DB6B013BDF
:103CD0001B0603F0FE43234913430B63214BDB6AAE
:103CE000204A23F00103D3621E4B5A6B204B134032
:103CF0007A68926CD2001B4913434B63194BDB6A01
:103D000023F00C027B681B6C16491343CB62154BE6
:103D1000DB6A23F002027B685B6C12491343CB62BF
:103D2000104BDB6A0F4A43F48033D3620D4BDB6ADE
:103D30000C4A43F40033D3620A4BDB6A094A43F46A
:103D40008023D362074BDB6A064A43F00103D36248
:103D5000044B1B68034A43F08073136006F0FCF9C0
:103D6000786210E000440258686A01080CFCFFFF0A
:103D70000700FFFF06F0F0F902467B6AD31A022B18
:103D800001D9032394E04C4B1B6803F00073002B14
:103D9000F0D08CE0484B1B68474A23F080731360D7
:103DA00006F0DAF9786208E006F0D6F902467B6A96
:103DB000D31A022B01D903237AE03F4B1B6803F08F
:103DC0000073002BF0D172E03B4B9B6A3B613A4B96
:103DD0001B6BFB607B685B6A012B31D03B6903F096
:103DE00003027B689B6A9A422AD13B691B0903F054
:103DF0003F027B68DB6A9A4222D1FB68C3F3080268
:103E00007B681B6B013B9A421AD1FB685B0A03F08B
:103E10007F027B685B6B013B9A4211D1FB681B0CF4
:103E200003F07F027B689B6B013B9A4208D1FB68E1
:103E30001B0E03F07F027B68DB6B013B9A4201D0D3
:103E4000012335E01C4B5B6BDB08C3F30C033B61C8
:103E50007B689B6C3A699A4229D07B689B6CB3F56E
:103E6000005F04D34FF45B71144810F033F9124B28
:103E7000DB6A114A23F00103D36206F06DF9786220
:103E800000BF06F069F902467B6A9342F9D00A4BFB
:103E90005A6B0B4B13407A68926CD200064913435D
:103EA0004B63054BDB6A044A43F00103D3620023F2
:103EB00018463037BD4680BD00440258686A010884
:103EC0000700FFFF80B586B000AF786039607B687F
:103ED000002B01D1012354E37B681B68002B03D026
:103EE0007B681B683F2B04D940F2A731274810F0AC
:103EF000F1F83B68002B31D03B68012B2ED03B689A
:103F0000022B2BD03B68032B28D03B68042B25D0F9
:103F10003B68052B22D03B68062B1FD03B68072B44
:103F20001CD03B68082B19D03B68092B16D03B6886
:103F30000A2B13D03B680B2B10D03B680C2B0DD0F9
:103F40003B680D2B0AD03B680E2B07D03B680F2B2C
:103F500004D04FF46A710D4810F0BCF80C4B1B688C
:103F600003F00F033A689A4214D9094B1B6823F0F7
:103F70000F0207493B6813430B60054B1B6803F0B6
:103F80000F033A689A4205D00123FAE2686A0108F1
:103F9000002000527B681B6803F00403002B29D02B
:103FA0007B681A697E4B9B6903F070039A4221D9A2
:103FB0007B681B69002B14D07B681B69402B10D0D9
:103FC0007B681B69502B0CD07B681B69602B08D069
:103FD0007B681B69702B04D04FF47171714810F02D
:103FE00079F86F4B9B6923F070027B681B696C4901
:103FF00013438B617B681B6803F00803002B29D0F7
:104000007B685A69664BDB6903F070039A4221D9D9
:104010007B685B69002B14D07B685B69402B10D0F8
:104020007B685B69502B0CD07B685B69602B08D088
:104030007B685B69702B04D040F2D631594810F090
:1040400049F8574BDB6923F070027B685B69544980
:104050001343CB617B681B6803F01003002B2DD04A
:104060007B689A694E4BDB6903F4E0639A4225D979
:104070007B689B69002B18D07B689B69B3F5806FC8
:1040800013D07B689B69B3F5A06F0ED07B689B69EA
:10409000B3F5C06F09D07B689B69B3F5E06F04D0BE
:1040A00040F2E7313F4810F015F83D4BDB6923F44F
:1040B000E0627B689B693A491343CB617B681B686C
:1040C00003F02003002B29D07B68DA69344B1B6A8C
:1040D00003F070039A4221D97B68DB69002B14D06E
:1040E0007B68DB69402B10D07B68DB69502B0CD0E0
:1040F0007B68DB69602B08D07B68DB69702B04D0A0
:1041000040F2F93127480FF0E5FF254B1B6A23F0F9
:1041100070027B68DB69224913430B627B681B6872
:1041200003F00203002B3FD07B68DA681C4B9B69CD
:1041300003F00F039A4237D97B68DB68002B24D049
:104140007B68DB68082B20D07B68DB68092B1CD0E0
:104150007B68DB680A2B18D07B68DB680B2B14D0DC
:104160007B68DB680C2B10D07B68DB680D2B0CD0D8
:104170007B68DB680E2B08D07B68DB680F2B04D0D4
:1041800040F20C4107480FF0A5FF054B9B6923F057
:104190000F027B68DB68024913438B6104E000BFB8
:1041A00000440258686A01087B681B6803F0010339
:1041B000002B00F09C807B689B68002B2CD07B68D8
:1041C0009B68B3F5006F27D07B689B68B3F5106FD1
:1041D00022D07B689B68B3F5206F1DD07B689B68FD
:1041E000B3F5306F18D07B689B68B3F5406F13D080
:1041F0007B689B68B3F5506F0ED07B689B68B3F506
:10420000606F09D07B689B68B3F5706F04D040F293
:104210001C4163480FF05EFF7B685B68012B10D088
:104220007B685B68002B0CD07B685B68022B08D036
:104230007B685B68032B04D040F21D4158480FF0A7
:1042400049FF584B9B6923F470627B689B68554912
:1042500013438B617B685B68022B07D1514B1B6852
:1042600003F40033002B21D101238AE17B685B68D2
:10427000032B07D14B4B1B6803F00073002B15D1A8
:1042800001237EE17B685B68012B07D1454B1B68EE
:1042900003F48073002B09D1012372E1414B1B68A9
:1042A00003F00403002B01D101236AE13D4B1B699C
:1042B00023F007027B685B683A4913430B6105F002
:1042C0004BFF78610AE005F047FF02467B69D31A8D
:1042D00041F28832934201D9032352E1314B1B69E9
:1042E00003F038027B685B68DB009A42EBD17B68A5
:1042F0001B6803F00203002B39D07B68DA68294B76
:104300009B6903F00F039A4231D27B68DB68002B74
:1043100024D07B68DB68082B20D07B68DB68092B06
:104320001CD07B68DB680A2B18D07B68DB680B2B02
:1043300014D07B68DB680C2B10D07B68DB680D2BFE
:104340000CD07B68DB680E2B08D07B68DB680F2BFA
:1043500004D040F25E4112480FF0BCFE114B9B6945
:1043600023F00F027B68DB680E4913438B610E4B11
:104370001B6803F00F033A689A4217D20A4B1B6876
:1043800023F00F0208493B6813430B60064B1B6880
:1043900003F00F033A689A4208D00123F1E000BF0E
:1043A000686A010800440258002000527B681B68BC
:1043B00003F00403002B29D07B681A69734B9B69B7
:1043C00003F070039A4221D27B681B69002B14D042
:1043D0007B681B69402B10D07B681B69502B0CD06D
:1043E0007B681B69602B08D07B681B69702B04D02D
:1043F00040F27F4166480FF06DFE644B9B6923F0ED
:1044000070027B681B69614913438B617B681B6881
:1044100003F00803002B29D07B685A695B4BDB69EA
:1044200003F070039A4221D27B685B69002B14D0A1
:104430007B685B69402B10D07B685B69502B0CD08C
:104440007B685B69602B08D07B685B69702B04D04C
:1044500040F291414E480FF03DFE4C4BDB6923F09A
:1044600070027B685B6949491343CB617B681B68B9
:1044700003F01003002B2DD07B689A69434BDB6956
:1044800003F4E0639A4225D27B689B69002B18D025
:104490007B689B69B3F5806F13D07B689B69B3F52C
:1044A000A06F0ED07B689B69B3F5C06F09D07B68A5
:1044B0009B69B3F5E06F04D040F2A34134480FF09C
:1044C00009FE324BDB6923F4E0627B689B692F496C
:1044D0001343CB617B681B6803F02003002B29D0BA
:1044E0007B68DA69294B1B6A03F070039A4221D278
:1044F0007B68DB69002B14D07B68DB69402B10D014
:104500007B68DB69502B0CD07B68DB69602B08D0A3
:104510007B68DB69702B04D040F2B5411C480FF07A
:10452000D9FD1A4B1B6A23F070027B68DB691749BF
:1045300013430B6200F036F80246144B9B691B0ACA
:1045400003F00F031349CB5C03F01F0322FA03F3BC
:104550003B610E4B9B6903F00F030E4AD35C03F0E3
:104560001F033A6922FA03F30B4A13600B4A3B69B3
:1045700013600B4B1B68184605F0A4FD0346FB7344
:10458000FB7B18461837BD4680BD00BF004402586B
:10459000686A01085C6F0108040000200000002028
:1045A0000800002080B489B000AFB34B1B6903F052
:1045B0003803182B00F2558101A252F823F000BFF6
:1045C000254600086348000863480008634800085F
:1045D000634800086348000863480008634800080F
:1045E0004B46000863480008634800086348000819
:1045F00063480008634800086348000863480008EF
:1046000051460008634800086348000863480008F2
:1046100063480008634800086348000863480008CE
:1046200057460008944B1B6803F02003002B09D069
:10463000914B1B68DB0803F00303904A22FA03F353
:10464000BB6111E18D4BBB610EE18D4BBB610BE199
:104650008C4BBB6108E1884B9B6A03F003037B61D1
:10466000854B9B6A1B0903F03F033B61824BDB6A6E
:1046700003F00103FB60804B5B6BDB08C3F30C03AF
:10468000FA6802FB03F307EE903AF8EE677AC7ED9B
:10469000027A3B69002B00F0E1807B69022B00F07D
:1046A00083807B69022B00F2A1807B69002B03D001
:1046B0007B69012B56D099E06F4B1B6803F02003F8
:1046C000002B2DD06C4B1B68DB0803F003036B4AF7
:1046D00022FA03F37B607B6807EE903AF8EE676A94
:1046E0003B6907EE903AF8EE677A86EEA77A624B5E
:1046F0001B6BC3F3080307EE903AF8EE676A97ED79
:10470000026ADFED615AC6EE257A76EEA77AF7EEF9
:10471000006A77EEA67A67EE277AC7ED077A87E018
:104720003B6907EE903AF8EE677ADFED586A86EE5D
:10473000A77A514B1B6BC3F3080307EE903AF8EED0
:10474000676A97ED026ADFED505AC6EE257A76EE7B
:10475000A77AF7EE006A77EEA67A67EE277AC7EDBA
:10476000077A65E03B6907EE903AF8EE677ADFED8D
:10477000486A86EEA77A404B1B6BC3F3080307EE2B
:10478000903AF8EE676A97ED026ADFED3F5AC6EE9F
:10479000257A76EEA77AF7EE006A77EEA67A67EECC
:1047A000277AC7ED077A43E03B6907EE903AF8EEC7
:1047B000677ADFED386A86EEA77A2F4B1B6BC3F35F
:1047C000080307EE903AF8EE676A97ED026ADFEDAC
:1047D0002E5AC6EE257A76EEA77AF7EE006A77EEC5
:1047E000A67A67EE277AC7ED077A21E03B6907EEE4
:1047F000903AF8EE677ADFED266A86EEA77A1E4BCE
:104800001B6BC3F3080307EE903AF8EE676A97ED67
:10481000026ADFED1D5AC6EE257A76EEA77AF7EE2C
:10482000006A77EEA67A67EE277AC7ED077A00BFAF
:10483000114B1B6B5B0A03F07F0301333B603B684A
:1048400007EE903AB8EE677AD7ED076AC6EE877A38
:10485000FCEEE77A17EE903ABB6105E00023BB61FE
:1048600002E0074BBB6100BFBB6918462437BD4659
:104870005DF8047B704700BF004402580090D003ED
:1048800000093D0000366E01000000460024744C13
:104890000024744A001BB74B80B582B000AFFFF70D
:1048A00081FE0246104B9B691B0A03F00F030F4960
:1048B000CB5C03F01F0322FA03F37B600A4B9B6976
:1048C00003F00F03094AD35C03F01F037A6822FA4E
:1048D00003F3074A1360074A7B681360044B1B68A5
:1048E00018460837BD4680BD004402585C6F010879
:1048F000040000200000002080B500AFFFF7CCFFCF
:104900000246064BDB691B0903F007030449CB5C35
:1049100003F01F0322FA03F3184680BD0044025837
:104920005C6F010880B500AFFFF7B6FF0246064B8B
:10493000DB691B0A03F007030449CB5C03F01F0388
:1049400022FA03F3184680BD004402585C6F010848
:104950002DE9B04FC6B000AFC7F80401002387F8B7
:104960001731002387F81631D7F80431D3E9002333
:1049700002F00064002554EA050349D0D7F8043159
:104980005B6EB3F5401F2FD0B3F5401F28D8B3F5A9
:10499000001F1AD0B3F5001F22D8002B03D0B3F5A7
:1049A000801F07D01CE0AB4BDB6AAA4A43F40033FC
:1049B000D3621AE0D7F8043108330221184601F017
:1049C00037FF034687F817310FE0D7F80431283353
:1049D0000221184602F04EF8034687F8173104E02A
:1049E000012387F8173100E000BF97F81731002B3B
:1049F0000AD1984B1B6D23F44011D7F804315B6E3C
:104A0000944A0B43136503E097F8173187F8163182
:104A1000D7F80431D3E9002302F480784FF000097D
:104A200058EA090347D0D7F804319B6D042B2AD8E4
:104A300001A252F823F000BF4D4A00085B4A00086B
:104A4000714A00088F4A00088F4A0008814BDB6AD0
:104A5000804A43F40033D3621AE0D7F804310833B4
:104A60000021184601F0E4FE034687F817310FE0F5
:104A7000D7F8043128330021184601F0FBFF034624
:104A800087F8173104E0012387F8173100E000BFF1
:104A900097F81731002B0AD16E4B1B6D23F00701DD
:104AA000D7F804319B6D6B4A0B43136503E097F80D
:104AB000173187F81631D7F80431D3E9002302F40F
:104AC000806A4FF0000B5AEA0B035BD0D7F8043131
:104AD000D3F8A430B3F5200F3BD0B3F5200F34D872
:104AE000B3F5000F37D0B3F5000F2ED8B3F5C00FD4
:104AF00033D0B3F5C00F28D8B3F5800F1AD0B3F573
:104B0000800F22D8002B03D0B3F5001F07D01CE084
:104B1000504BDB6A4F4A43F40033D3621EE0D7F8B0
:104B2000043108330021184601F082FE034687F85D
:104B3000173113E0D7F8043128330021184601F06B
:104B400099FF034687F8173108E0012387F81731EA
:104B500004E000BF02E000BF00E000BF97F817319B
:104B6000002B0BD13B4B9B6D23F46001D7F8043134
:104B7000D3F8A430374A0B43936503E097F8173115
:104B800087F81631D7F80431D3E9002302F4006323
:104B9000C7F8F8300023C7F8FC30D7E93E120B46BF
:104BA00013435DD0D7F80431D3F8A830B3F1A06F28
:104BB0003BD0B3F1A06F34D8B3F1806F37D0B3F1ED
:104BC000806F2ED8B3F1407F33D0B3F1407F28D827
:104BD000B3F1007F1AD0B3F1007F22D8002B03D0AD
:104BE000B3F1807F07D01CE01A4BDB6A194A43F40B
:104BF0000033D3621EE0D7F8043108330021184691
:104C000001F016FE034687F8173113E0D7F8043198
:104C100028330021184601F02DFF034687F817318D
:104C200008E0012387F8173104E000BF02E000BF6D
:104C300000E000BF97F81731002B0DD1054B9B6D9D
:104C400023F0E061D7F80431D3F8A830014A0B43D0
:104C5000936505E00044025897F8173187F816313C
:104C6000D7F80431D3E9002302F00073C7F8F0301D
:104C70000023C7F8F430D7E93C120B4613433AD06F
:104C8000D7F80431DB6C302B1FD0302B19D8202BF8
:104C90000CD0202B15D8002B19D0102B11D1AA4BDA
:104CA000DB6AA94A43F40033D36211E0D7F8043138
:104CB00008330221184601F0BBFD034687F817317F
:104CC00006E0012387F8173102E000BF00E000BFD3
:104CD00097F81731002B0AD19B4BDB6C23F0300186
:104CE000D7F80431DB6C984A0B43D36403E097F8A0
:104CF000173187F81631D7F80431D3E9002302F4CD
:104D00008053C7F8E8300023C7F8EC30D7E93A12EF
:104D10000B46134351D0D7F80431DB6DB3F5804F08
:104D200035D0B3F5804F2ED8B3F5405F31D0B3F511
:104D3000405F28D8B3F5005F1AD0B3F5005F22D8E2
:104D4000002B03D0B3F5805F07D01CE07E4BDB6AFD
:104D50007D4A43F40033D3621CE0D7F804310833B2
:104D60000021184601F064FD034687F8173111E071
:104D7000D7F8043128330021184601F07BFE0346A2
:104D800087F8173106E0012387F8173102E000BFEA
:104D900000E000BF97F81731002B0AD16A4B1B6D5A
:104DA00023F4E041D7F80431DB6D674A0B43136508
:104DB00003E097F8173187F81631D7F80431D3E9B3
:104DC000002302F40053C7F8E0300023C7F8E430B2
:104DD000D7E938120B46134353D0D7F804311B6E72
:104DE000B3F5A02F33D0B3F5A02F2CD8B3F5802F77
:104DF0002FD0B3F5802F26D8B3F5403F2BD0B3F595
:104E0000403F20D8B3F5003F12D0B3F5003F1AD889
:104E1000002B22D0B3F5803F15D1D7F804310833E9
:104E20000121184601F004FD034687F8173115E00B
:104E3000D7F8043128330121184601F01BFE034640
:104E400087F817310AE0012387F8173106E000BF21
:104E500004E000BF02E000BF00E000BF97F8173198
:104E6000002B0AD1384B1B6D23F4E021D7F8043115
:104E70001B6E354A0B43136503E097F8173187F82B
:104E80001631D7F80431D3E9002302F48043C7F880
:104E9000D8300023C7F8DC30D7E936120B4613436D
:104EA00058D0D7F80431D3F8AC30B3F1A04F33D099
:104EB000B3F1A04F2CD8B3F1804F2FD0B3F1804F76
:104EC00026D8B3F1405F2BD0B3F1405F20D8B3F1C7
:104ED000005F12D0B3F1005F1AD8002B22D0B3F1DB
:104EE000805F15D1D7F8043108330121184601F04D
:104EF0009FFC034687F8173115E0D7F804312833B3
:104F00000121184601F0B6FD034687F817310AE083
:104F1000012387F8173106E000BF04E000BF02E07C
:104F200000BF00E000BF97F81731002B0ED1064BF1
:104F30009B6D23F0E041D7F80431D3F8AC30024A3E
:104F40000B43936506E000BF0044025897F8173101
:104F500087F81631D7F80431D3E9002302F400436F
:104F6000C7F8D0300023C7F8D430D7E934120B4645
:104F7000134337D0D7F80431DB6EB3F1005F0ED0A6
:104F8000B3F1005F16D8002B18D0B3F1805F11D1B8
:104F9000374BDB6A364A43F40033D3620FE0D7F86D
:104FA000043108330121184601F042FC034687F81A
:104FB000173104E0012387F8173100E000BF97F8AC
:104FC0001731002B0AD12A4B1B6D23F04051D7F823
:104FD0000431DB6E264A0B43136503E097F8173163
:104FE00087F81631D7F80431D3E9002302F0807333
:104FF000C7F8C8300023C7F8CC30D7E932120B46C7
:1050000013433BD0D7F804319B6C032B1CD801A26F
:1050100052F823F051500008255000083350000882
:1050200051500008124BDB6A114A43F40033D3623B
:105030000FE0D7F8043108330221184601F0F8FBDD
:10504000034687F8173104E0012387F8173100E0A1
:1050500000BF97F81731002B0CD1054BDB6C23F008
:105060000301D7F804319B6C014A0B43D36405E07C
:105070000044025897F8173187F81631D7F80431F1
:10508000D3E9002302F48003C7F8C0300023C7F837
:10509000C430D7E930120B46134300F0F182D7F841
:1050A0000431D3F8B030B3F5807F00F0EB81D7F84E
:1050B0000431D3F8B030B3F5007F00F0E381D7F8C6
:1050C0000431D3F8B030B3F50C5F00F0DB81D7F8D2
:1050D0000431D3F8B030B3F54C5F00F0D381D7F88A
:1050E0000431D3F8B030B3F5864F00F0CB81D7F858
:1050F0000431D3F8B030B3F5A64F00F0C381D7F830
:105100000431D3F8B030B3F5C64F00F0BB81D7F807
:105110000431D3F8B030B3F5E64F00F0B381D7F8DF
:105120000431D3F8B030B3F5034F00F0AB81D7F8BA
:105130000431D3F8B030B3F5134F00F0A381D7F8A2
:105140000431D3F8B030B3F5234F00F09B81D7F88A
:105150000431D3F8B030B3F5334F00F09381D7F872
:105160000431D3F8B030B3F5434F00F08B81D7F85A
:105170000431D3F8B030B3F5534F00F08381D7F842
:105180000431D3F8B030B3F5634F00F07B81D7F82A
:105190000431D3F8B030B3F5734F00F07381D7F812
:1051A0000431D3F8B020BD4B9A4200F06B81D7F8A0
:1051B0000431D3F8B020BA4B9A4200F06381D7F89B
:1051C0000431D3F8B020B74B9A4200F05B81D7F896
:1051D0000431D3F8B020B44B9A4200F05381D7F891
:1051E0000431D3F8B020B14B9A4200F04B81D7F88C
:1051F0000431D3F8B020AE4B9A4200F04381D7F887
:105200000431D3F8B020AB4B9A4200F03B81D7F881
:105210000431D3F8B020A84B9A4200F03381D7F87C
:105220000431D3F8B020A54B9A4200F02B81D7F877
:105230000431D3F8B020A24B9A4200F02381D7F872
:105240000431D3F8B0209F4B9A4200F01B81D7F86D
:105250000431D3F8B0209C4B9A4200F01381D7F868
:105260000431D3F8B020994B9A4200F00B81D7F863
:105270000431D3F8B020964B9A4200F00381D7F85E
:105280000431D3F8B020934B9A4200F0FB80D7F85A
:105290000431D3F8B020904B9A4200F0F380D7F855
:1052A0000431D3F8B0208D4B9A4200F0EB80D7F850
:1052B0000431D3F8B0208A4B9A4200F0E380D7F84B
:1052C0000431D3F8B020874B9A4200F0DB80D7F846
:1052D0000431D3F8B020844B9A4200F0D380D7F841
:1052E0000431D3F8B020814B9A4200F0CB80D7F83C
:1052F0000431D3F8B0207E4B9A4200F0C380D7F837
:105300000431D3F8B0207B4B9A4200F0BB80D7F831
:105310000431D3F8B020784B9A4200F0B380D7F82C
:105320000431D3F8B020754B9A4200F0AB80D7F827
:105330000431D3F8B020724B9A4200F0A380D7F822
:105340000431D3F8B0206F4B9A4200F09B80D7F81D
:105350000431D3F8B0206C4B9A4200F09380D7F818
:105360000431D3F8B020694B9A4200F08B80D7F813
:105370000431D3F8B020664B9A4200F08380D7F80E
:105380000431D3F8B020634B9A427BD0D7F8043174
:10539000D3F8B020604B9A4274D0D7F80431D3F8D8
:1053A000B0205E4B9A426DD0D7F80431D3F8B020CC
:1053B0005B4B9A4266D0D7F80431D3F8B020594BF2
:1053C0009A425FD0D7F80431D3F8B020564B9A42B6
:1053D00058D0D7F80431D3F8B020544B9A4251D06A
:1053E000D7F80431D3F8B020514B9A424AD0D7F8BD
:1053F0000431D3F8B0204F4B9A4243D0D7F8043150
:10540000D3F8B0204C4B9A423CD0D7F80431D3F8B3
:10541000B0204A4B9A4235D0D7F80431D3F8B020A7
:10542000474B9A422ED0D7F80431D3F8B020454BE1
:105430009A4227D0D7F80431D3F8B020424B9A4291
:1054400020D0D7F80431D3F8B020404B9A4219D07D
:10545000D7F80431D3F8B0203D4B9A4212D0D7F898
:105460000431D3F8B0203B4B9A420BD0D7F804312B
:10547000D3F8B020384B9A4204D040F27D313748FF
:105480000EF028FE364B1B68354A43F480731360D8
:1054900004F062FEC7F8100170E000BF00030100D5
:1054A000001301000023010000330100004301004C
:1054B000005301000063010000730100008301003C
:1054C0000093010000A3010000B3010000C301002C
:1054D00000D3010000E3010000F30100000302001B
:1054E0000013020000230200003302000043020008
:1054F00000530200006302000073020000830200F8
:105500000093020000A3020000B3020000C30200E7
:1055100000D3020000E3020000F3020000030300D6
:1055200000130300002303000033030000430300C3
:1055300000530300006303000073030000830300B3
:105540000093030000A3030000B3030000C30300A3
:1055500000D3030000E3030000F30300B86A01086E
:105560000048025804F0F8FD0246D7F81031D31A6B
:10557000642B03D9032387F8173105E0CF4B1B6851
:1055800003F48073002BEDD097F81731002B73D103
:10559000CB4B1A6FD7F80431D3F8B030534003F433
:1055A0004073002B15D0C64B1B6F23F44073C7F814
:1055B0000C31C34B1B6FC24A43F480331367C04B9B
:1055C0001B6FBF4A23F480331367BD4AD7F80C31F1
:1055D0001367D7F80431D3F8B030B3F5807F18D112
:1055E00004F0BAFDC7F810010DE004F0B5FD024665
:1055F000D7F81031D21A41F288339A4203D90323E3
:1056000087F8173105E0AE4B1B6F03F00203002B48
:10561000EBD097F81731002B29D1D7F80431D3F804
:10562000B03003F44073B3F5407F0ED1A44B1B6937
:1056300023F47C51D7F80431D3F8B0301A09A14BC8
:1056400013409F4A0B43136105E09D4B1B699C4A25
:1056500023F47C5313619A4B196FD7F80431D3F8B4
:10566000B030C3F30B03964A0B43136708E097F877
:10567000173187F8163103E097F8173187F816319C
:10568000D7F80431D3E9002302F00103C7F8B8309A
:105690000023C7F8BC30D7E92E120B46134300F0A5
:1056A0008980D7F804319B6F282B6BD801A252F860
:1056B00023F000BF8D570008855700088557000864
:1056C000855700088557000885570008855700084A
:1056D0008557000859570008855700088557000866
:1056E000855700088557000885570008855700082A
:1056F000855700086F570008855700088557000830
:105700008557000885570008855700088557000809
:10571000855700088D5700088557000885570008F1
:1057200085570008855700088557000885570008E9
:10573000855700088D5700088557000885570008D1
:1057400085570008855700088557000885570008C9
:10575000855700088D570008D7F804310833012118
:10576000184601F065F8034687F817310FE0D7F8BF
:10577000043128330121184601F07CF9034687F8EB
:10578000173104E0012387F8173100E000BF97F8D4
:105790001731002B0AD14A4B5B6D23F03801D7F843
:1057A00004319B6F464A0B43536503E097F817316A
:1057B00087F81631D7F80431D3E9002302F0020349
:1057C000C7F8B0300023C7F8B430D7E92C120B4625
:1057D000134341D0D7F804315B6F052B24D801A2C5
:1057E00052F823F031580008FD57000813580008FC
:1057F000315800083158000831580008D7F80431F2
:1058000008330121184601F013F8034687F81731D1
:105810000FE0D7F8043128330121184601F02AF9A6
:10582000034687F8173104E0012387F8173100E0B9
:1058300000BF97F81731002B0AD1214B5B6D23F085
:105840000701D7F804315B6F1D4A0B43536503E032
:1058500097F8173187F81631D7F80431D3E90023C8
:1058600002F00403C7F8A8300023C7F8AC30D7E92A
:105870002A120B4613434BD0D7F80431D3F890309B
:10588000052B2CD801A252F823F000BFE7580008DE
:10589000A5580008C9580008E7580008E75800084C
:1058A000E7580008D7F8043108330121184600F002
:1058B000BFFF034687F8173116E000BF00480258C3
:1058C00000440258CFFFFF00D7F8043128330121EC
:1058D000184601F0CFF8034687F8173104E001239A
:1058E00087F8173100E000BF97F81731002B0BD174
:1058F0009E4B9B6D23F00701D7F80431D3F890300D
:105900009A4A0B43936503E097F8173187F81631ED
:10591000D7F80431D3E9002302F02003C7F8A03000
:105920000023C7F8A430D7E928120B46134355D0FB
:10593000D7F80431D3F88C30B3F1A04F33D0B3F1A2
:10594000A04F2CD8B3F1804F2FD0B3F1804F26D881
:10595000B3F1405F2BD0B3F1405F20D8B3F1005FCB
:1059600012D0B3F1005F1AD8002B22D0B3F1805FC0
:1059700015D1D7F8043108330021184600F058FF3C
:10598000034687F8173115E0D7F804312833022190
:10599000184601F06FF8034687F817310AE0012333
:1059A00087F8173106E000BF04E000BF02E000BF47
:1059B00000E000BF97F81731002B0BD16B4B5B6DEC
:1059C00023F0E041D7F80431D3F88C30674A0B4319
:1059D000536503E097F8173187F81631D7F804318B
:1059E000D3E9002302F04003C7F898300023C7F83A
:1059F0009C30D7E926120B46134355D0D7F8043113
:105A0000D3F89830B3F5A05F33D0B3F5A05F2CD8AE
:105A1000B3F5805F2FD0B3F5805F26D8B3F5406F24
:105A20002BD0B3F5406F20D8B3F5006F12D0B3F58B
:105A3000006F1AD8002B22D0B3F5806F15D1D7F89C
:105A4000043108330021184600F0F2FE034687F8BF
:105A5000173115E0D7F8043128330221184601F038
:105A600009F8034687F817310AE0012387F8173150
:105A700006E000BF04E000BF02E000BF00E000BF9E
:105A800097F81731002B0BD1384B9B6D23F4E05165
:105A9000D7F80431D3F89830344A0B43936503E0C8
:105AA00097F8173187F81631D7F80431D3E9002376
:105AB00002F08003C7F890300023C7F89430D7E98C
:105AC00024120B46134357D0D7F80431D3F89C3037
:105AD000B3F5204F33D0B3F5204F2CD8B3F5004F9A
